:0A000000FF00FF00FF00FF00FF00FB
:0A000A00FF00FF00FF00FF00FF00F1
:0A001400FF00FF00FF00FF00FF00E7
:0A001E00FF00FF00FF00FF00FF00DD
:0A002800FF00FF00FF00FF00FF00D3
:0A003200FF00FF00FF00FF00FF00C9
:0A003C00FF00FF00FF00FF00FF00BF
:0A004600FF00FF00FF00FF00FF00B5
:0A005000FF00FF00FF00FF00FF00AB
:0A005A00FF00FF00FF00FF00FF00A1
:0A006400FF00FF00FF00FF00FF0097
:0A006E00FF00FF00FF00FF00FF008D
:0A007800FF00FF00FF00FF00FF0083
:0A008200FF00FF00FF00FF00FF0079
:0A008C00FF00FF00FF00FF00FF006F
:0A009600FF00FF00FF00FF00FF0065
:0A00A000FF00FF00FF00FF00FF005B
:0A00AA00FF00FF00FF00FF00FF0051
:0A00B400FF00FF00FF00FF00FF0047
:0A00BE00FF00FF00FF00FF00FF003D
:0A00C800FF00FF00FF00FF00FF0033
:0A00D200FF00FF00FF00FF00FF0029
:0A00DC00FF00FF00FF00FF00FF001F
:0A00E600FF00FF00FF00FF00FF0015
:0A00F000FF00FF00FF00FF00FF000B
:0600FA00FF00FF00FF0003
:00000001FF